S01A00004D4547415F4750494F5F4558414D504C45312E73726563C6
S113000033C0000039C0000037C0000036C0000013
S113001033C0000031C000002FC000002DC000001C
S11300202BC0000029C0000027C0000025C000002C
S113003023C0000021C000001FC000001DC000003C
S11300401BC0000019C0000017C0000015C000004C
S113005013C0000011C000000FC000000DC000005C
S11300600BC0000009C0000011241FBECFEFD8E070
S1130070DEBFCDBF10D020C0C3CF1F920F920FB6EA
S11300800F9211248F9381E089B98F910F900FBE45
S11300900F901F9018958FEF8AB98BB91BB885B94B
S11300A083B1589A599883E089B981E080936800B4
S10F00B080936B007894FFCFF894FFCF8E
S9030000FC
