:1000000033C000004CC000004AC0000048C00000DF
:1000100046C0000044C0000042C0000040C00000D4
:100020003EC0000050C000003AC0000038C00000D0
:1000300036C0000034C0000032C0000030C00000F4
:100040002EC000002CC000002AC0000028C0000004
:1000500026C0000024C0000022C0000020C0000014
:100060001EC000001CC0000011241FBECFEFD8E04E
:10007000DEBFCDBF11E0A0E0B1E0E2E9F3E002C0F5
:1000800005900D92A431B107D9F721E0A4E1B1E0C8
:1000900001C01D92A633B207E1F7F7D078C1B0CF07
:1000A000E0ECF0E0908195FFFDCF8093C6000895CD
:1000B000E4E6F0E080818E7F8083EAE7F0E08081F3
:1000C0008068808308951F920F920FB60F921124BB
:1000D0002F933F934F935F936F937F938F939F9350
:1000E000AF93BF93EF93FF93F894E2DF80912401E5
:1000F00090912501ECE7F0E02081207F2083208192
:100100002083EAE7F0E0208120642083208126FD1F
:10011000FDCF2091780030917900FC01EE0FFF1F98
:10012000EA5DFE4F31832083019665E070E0D9D00F
:100130009093250180932401EAE7F0E080818F7796
:100140008083E4E6F0E08081816080831092350155
:10015000109234018091340190913501883E934092
:1001600084F480913401909135010196909335018A
:10017000809334018091340190913501883E934001
:1001800084F31092350110923401E0913401F09122
:100190003501E050FF4F80818823D1F0E091340198
:1001A000F0913501E050FF4F80817ADF809134017A
:1001B0009091350101969093350180933401E0913F
:1001C0003401F0913501E050FF4F80818111E6CF7D
:1001D00080913001909131014AE050E064E171E09A
:1001E000A7D01092350110923401E0913401F091C2
:1001F0003501EC5EFE4F80818823D1F0E09134011F
:10020000F0913501EC5EFE4F80814ADF8091340130
:100210009091350101969093350180933401E091DE
:100220003401F0913501EC5EFE4F80818111E6CF03
:10023000809130019091310101969093310180932A
:1002400030018DE02DDF8AE02BDFB89A789483B7F8
:10025000817F866083BF83B7816083BF85B78066F7
:1002600085BF8F7D85BF8895FF91EF91BF91AF913D
:100270009F918F917F916F915F914F913F912F91BE
:100280000F900FBE0F901F90189510923101109291
:10029000300110922501109224011092C5008CE0CB
:1002A0008093C400E0ECF0E080818260808388E18C
:1002B0008093C100519A86E08093C200F9DEE1EBA1
:1002C000F0E08081857F808380818560808381E00C
:1002D00080937000E6EBF0E0808180628083789408
:1002E000FFCF97FB072E16F4009406D077FD08D0B9
:1002F0000BD007FC05D03EF4909581959F4F089553
:10030000709561957F4F0895AA1BBB1B51E107C0F3
:10031000AA1FBB1FA617B70710F0A61BB70B881F95
:10032000991F5A95A9F780959095BC01CD01089524
:10033000FB019F01E8944230BCF04532ACF44A30F6
:1003400029F497FB1EF4909581959F4F642F772792
:10035000DBDF805D8A330CF0895D8193CB010097F0
:10036000A9F716F45DE251931082C90100C0DC01C7
:10037000FC01672F71917723E1F7329704C07C91DC
:100380006D9370836291AE17BF07C8F30895F89418
:02039000FFCF9D
:1003920048656C6C6F20576F726C6421000000001E
:0403A2000000000057
:00000001FF
